{
  "transactions": [
    {
      "hash": "0x668952993c0cb8c5d04448a158f13c5a306b75f5da9c682cf186f9ba3cc82acd",
      "transactionType": "CALL",
      "contractName": null,
      "contractAddress": "0x779877a7b0d9e8603169ddbd7836e478b4624789",
      "function": "approve(address,uint256)",
      "arguments": [
        "0xb0E49c5D0d05cbc241d68c05BC5BA1d1B7B72976",
        "2000000000000000000"
      ],
      "transaction": {
        "from": "0x3df3a0005882c04ff01923fb30318235e4a2021d",
        "to": "0x779877a7b0d9e8603169ddbd7836e478b4624789",
        "gas": "0xf961",
        "value": "0x0",
        "input": "0x095ea7b3000000000000000000000000b0e49c5d0d05cbc241d68c05bc5ba1d1b7b729760000000000000000000000000000000000000000000000001bc16d674ec80000",
        "nonce": "0x3e",
        "chainId": "0xaa36a7"
      },
      "additionalContracts": [],
      "isFixedGasLimit": false
    },
    {
      "hash": "0xbd5c0f090a245ffbbcd34703f7e84a4a6c5925d2c0ba05ff56a070ad871a0508",
      "transactionType": "CALL",
      "contractName": null,
      "contractAddress": "0xb0e49c5d0d05cbc241d68c05bc5ba1d1b7b72976",
      "function": "registerUpkeep((string,bytes,address,uint32,address,uint8,bytes,bytes,bytes,uint96))",
      "arguments": [
        "(DeFiStressOracle ARU, 0x, 0xd3DD2704AE928e130825b4db9C0e862419e7aB40, 3000000, 0x3Df3a0005882C04FF01923Fb30318235e4A2021D, 0, 0x, 0x, 0x, 2000000000000000000)"
      ],
      "transaction": {
        "from": "0x3df3a0005882c04ff01923fb30318235e4a2021d",
        "to": "0xb0e49c5d0d05cbc241d68c05bc5ba1d1b7b72976",
        "gas": "0xa001f",
        "value": "0x0",
        "input": "0x3f678e11000000000000000000000000000000000000000000000000000000000000002000000000000000000000000000000000000000000000000000000000000001400000000000000000000000000000000000000000000000000000000000000180000000000000000000000000d3dd2704ae928e130825b4db9c0e862419e7ab4000000000000000000000000000000000000000000000000000000000002dc6c00000000000000000000000003df3a0005882c04ff01923fb30318235e4a2021d000000000000000000000000000000000000000000000000000000000000000000000000000000000000000000000000000000000000000000000000000001a000000000000000000000000000000000000000000000000000000000000001c000000000000000000000000000000000000000000000000000000000000001e00000000000000000000000000000000000000000000000001bc16d674ec800000000000000000000000000000000000000000000000000000000000000000014446546695374726573734f7261636c65204152550000000000000000000000000000000000000000000000000000000000000000000000000000000000000000000000000000000000000000000000000000000000000000000000000000000000000000000000000000000000000000000000000000000000000000000000000000000000000000000000000000000000000000000000000000000000000000",
        "nonce": "0x3f",
        "chainId": "0xaa36a7"
      },
      "additionalContracts": [
        {
          "transactionType": "CREATE",
          "contractName": null,
          "address": "0xc9f607d3017f12cf273932aa8c4ec4509af152fa",
          "initCode": "0x60c060405234801561001057600080fd5b506040516103ca3803806103ca83398101604081905261002f91610076565b600080546001600160a01b0319166001600160a01b039384161790559181166080521660a0526100b9565b80516001600160a01b038116811461007157600080fd5b919050565b60008060006060848603121561008b57600080fd5b6100948461005a565b92506100a26020850161005a565b91506100b06040850161005a565b90509250925092565b60805160a0516102e76100e36000396000603801526000818160c4015261011701526102e76000f3fe608060405234801561001057600080fd5b50600436106100365760003560e01c806379188d161461007b578063f00e6a2a146100aa575b7f00000000000000000000000000000000000000000000000000000000000000003660008037600080366000845af43d6000803e808015610076573d6000f35b3d6000fd5b61008e6100893660046101c1565b6100ee565b6040805192151583526020830191909152015b60405180910390f35b60405173ffffffffffffffffffffffffffffffffffffffff7f00000000000000000000000000000000000000000000000000000000000000001681526020016100a1565b60008054819073ffffffffffffffffffffffffffffffffffffffff16331461011557600080fd5b7f00000000000000000000000000000000000000000000000000000000000000005a91505a61138881101561014957600080fd5b61138881039050856040820482031161016157600080fd5b50803b61016d57600080fd5b6000808551602087016000858af192505a610188908361029a565b9150509250929050565b7f4e487b7100000000000000000000000000000000000000000000000000000000600052604160045260246000fd5b600080604083850312156101d457600080fd5b82359150602083013567ffffffffffffffff808211156101f357600080fd5b818501915085601f83011261020757600080fd5b81358181111561021957610219610192565b604051601f82017fffffffffffffffffffffffffffffffffffffffffffffffffffffffffffffffe0908116603f0116810190838211818310171561025f5761025f610192565b8160405282815288602084870101111561027857600080fd5b8260208601602083013760006020848301015280955050505050509250929050565b818103818111156102d4577f4e487b7100000000000000000000000000000000000000000000000000000000600052601160045260246000fd5b9291505056fea164736f6c6343000810000a000000000000000000000000d3dd2704ae928e130825b4db9c0e862419e7ab4000000000000000000000000086efbd0b6736bed994962f9797049422a3a8e8ad00000000000000000000000045e65c181e503ed0c116313edcad042928a6d608"
        }
      ],
      "isFixedGasLimit": false
    }
  ],
  "receipts": [
    {
      "status": "0x1",
      "cumulativeGasUsed": "0x19ec6e6",
      "logs": [
        {
          "address": "0x779877a7b0d9e8603169ddbd7836e478b4624789",
          "topics": [
            "0x8c5be1e5ebec7d5bd14f71427d1e84f3dd0314c0f7b2291e5b200ac8c7c3b925",
            "0x0000000000000000000000003df3a0005882c04ff01923fb30318235e4a2021d",
            "0x000000000000000000000000b0e49c5d0d05cbc241d68c05bc5ba1d1b7b72976"
          ],
          "data": "0x0000000000000000000000000000000000000000000000001bc16d674ec80000",
          "blockHash": "0xdaebd2879dec10a0881b7c03ae44b06ef71f7c6e46e4c5f8c24f5f0787aad2f9",
          "blockNumber": "0x9e9ecd",
          "blockTimestamp": "0x69aa9b08",
          "transactionHash": "0x668952993c0cb8c5d04448a158f13c5a306b75f5da9c682cf186f9ba3cc82acd",
          "transactionIndex": "0xb1",
          "logIndex": "0x253",
          "removed": false
        }
      ],
      "logsBloom": "0x00000004000000000080000000000000000000000000000000000000000000000000000000000000000000000000000000000020000000000000000000200000000000000000000800000000000000000000000000001040000000000000000000000000000000000000000000000000000000000000000000000000000000000000000000000000000000000000800000000000000000000000000000000000020000000000000000000000000000000000000000000000000000000000000000000000000000000000000000000000000000000000008100000000000000000010000000000000000000000000000000000000000000000000000000000000",
      "type": "0x2",
      "transactionHash": "0x668952993c0cb8c5d04448a158f13c5a306b75f5da9c682cf186f9ba3cc82acd",
      "transactionIndex": "0xb1",
      "blockHash": "0xdaebd2879dec10a0881b7c03ae44b06ef71f7c6e46e4c5f8c24f5f0787aad2f9",
      "blockNumber": "0x9e9ecd",
      "gasUsed": "0xb48d",
      "effectiveGasPrice": "0x2e9e81ac",
      "from": "0x3df3a0005882c04ff01923fb30318235e4a2021d",
      "to": "0x779877a7b0d9e8603169ddbd7836e478b4624789",
      "contractAddress": null
    },
    {
      "status": "0x1",
      "cumulativeGasUsed": "0x1a59d69",
      "logs": [
        {
          "address": "0x779877a7b0d9e8603169ddbd7836e478b4624789",
          "topics": [
            "0xddf252ad1be2c89b69c2b068fc378daa952ba7f163c4a11628f55a4df523b3ef",
            "0x0000000000000000000000003df3a0005882c04ff01923fb30318235e4a2021d",
            "0x000000000000000000000000b0e49c5d0d05cbc241d68c05bc5ba1d1b7b72976"
          ],
          "data": "0x0000000000000000000000000000000000000000000000001bc16d674ec80000",
          "blockHash": "0xdaebd2879dec10a0881b7c03ae44b06ef71f7c6e46e4c5f8c24f5f0787aad2f9",
          "blockNumber": "0x9e9ecd",
          "blockTimestamp": "0x69aa9b08",
          "transactionHash": "0xbd5c0f090a245ffbbcd34703f7e84a4a6c5925d2c0ba05ff56a070ad871a0508",
          "transactionIndex": "0xb2",
          "logIndex": "0x254",
          "removed": false
        },
        {
          "address": "0x779877a7b0d9e8603169ddbd7836e478b4624789",
          "topics": [
            "0x8c5be1e5ebec7d5bd14f71427d1e84f3dd0314c0f7b2291e5b200ac8c7c3b925",
            "0x0000000000000000000000003df3a0005882c04ff01923fb30318235e4a2021d",
            "0x000000000000000000000000b0e49c5d0d05cbc241d68c05bc5ba1d1b7b72976"
          ],
          "data": "0x0000000000000000000000000000000000000000000000000000000000000000",
          "blockHash": "0xdaebd2879dec10a0881b7c03ae44b06ef71f7c6e46e4c5f8c24f5f0787aad2f9",
          "blockNumber": "0x9e9ecd",
          "blockTimestamp": "0x69aa9b08",
          "transactionHash": "0xbd5c0f090a245ffbbcd34703f7e84a4a6c5925d2c0ba05ff56a070ad871a0508",
          "transactionIndex": "0xb2",
          "logIndex": "0x255",
          "removed": false
        },
        {
          "address": "0xb0e49c5d0d05cbc241d68c05bc5ba1d1b7b72976",
          "topics": [
            "0x7684390ebb103102f7f48c71439c2408713f8d437782a6fab2756acc0e42c1b7",
            "0x6cb95d31087ef064583a3c84f04d7b8e9a78017a36a5d69c246f13db1daf0e46",
            "0x000000000000000000000000d3dd2704ae928e130825b4db9c0e862419e7ab40"
          ],
          "data": "0x0000000000000000000000000000000000000000000000000000000000000120000000000000000000000000000000000000000000000000000000000000016000000000000000000000000000000000000000000000000000000000002dc6c00000000000000000000000003df3a0005882c04ff01923fb30318235e4a2021d0000000000000000000000000000000000000000000000000000000000000000000000000000000000000000000000000000000000000000000000000000018000000000000000000000000000000000000000000000000000000000000001a000000000000000000000000000000000000000000000000000000000000001c00000000000000000000000000000000000000000000000001bc16d674ec800000000000000000000000000000000000000000000000000000000000000000014446546695374726573734f7261636c65204152550000000000000000000000000000000000000000000000000000000000000000000000000000000000000000000000000000000000000000000000000000000000000000000000000000000000000000000000000000000000000000000000000000000000000000000000000000000000000000000000000000000000000000000000000000000000000000",
          "blockHash": "0xdaebd2879dec10a0881b7c03ae44b06ef71f7c6e46e4c5f8c24f5f0787aad2f9",
          "blockNumber": "0x9e9ecd",
          "blockTimestamp": "0x69aa9b08",
          "transactionHash": "0xbd5c0f090a245ffbbcd34703f7e84a4a6c5925d2c0ba05ff56a070ad871a0508",
          "transactionIndex": "0xb2",
          "logIndex": "0x256",
          "removed": false
        },
        {
          "address": "0x86efbd0b6736bed994962f9797049422a3a8e8ad",
          "topics": [
            "0xbae366358c023f887e791d7a62f2e4316f1026bd77f6fb49501a917b3bc5d012",
            "0x844d09df0000000000000000000000006c560d3d6b16c4ebfe25a768e6667e49"
          ],
          "data": "0x00000000000000000000000000000000000000000000000000000000002dc6c00000000000000000000000003df3a0005882c04ff01923fb30318235e4a2021d",
          "blockHash": "0xdaebd2879dec10a0881b7c03ae44b06ef71f7c6e46e4c5f8c24f5f0787aad2f9",
          "blockNumber": "0x9e9ecd",
          "blockTimestamp": "0x69aa9b08",
          "transactionHash": "0xbd5c0f090a245ffbbcd34703f7e84a4a6c5925d2c0ba05ff56a070ad871a0508",
          "transactionIndex": "0xb2",
          "logIndex": "0x257",
          "removed": false
        },
        {
          "address": "0x86efbd0b6736bed994962f9797049422a3a8e8ad",
          "topics": [
            "0xcba2d5723b2ee59e53a8e8a82a4a7caf4fdfe70e9f7c582950bf7e7a5c24e83d",
            "0x844d09df0000000000000000000000006c560d3d6b16c4ebfe25a768e6667e49"
          ],
          "data": "0x00000000000000000000000000000000000000000000000000000000000000200000000000000000000000000000000000000000000000000000000000000000",
          "blockHash": "0xdaebd2879dec10a0881b7c03ae44b06ef71f7c6e46e4c5f8c24f5f0787aad2f9",
          "blockNumber": "0x9e9ecd",
          "blockTimestamp": "0x69aa9b08",
          "transactionHash": "0xbd5c0f090a245ffbbcd34703f7e84a4a6c5925d2c0ba05ff56a070ad871a0508",
          "transactionIndex": "0xb2",
          "logIndex": "0x258",
          "removed": false
        },
        {
          "address": "0x86efbd0b6736bed994962f9797049422a3a8e8ad",
          "topics": [
            "0x2b72ac786c97e68dbab71023ed6f2bdbfc80ad9bb7808941929229d71b7d5664",
            "0x844d09df0000000000000000000000006c560d3d6b16c4ebfe25a768e6667e49"
          ],
          "data": "0x00000000000000000000000000000000000000000000000000000000000000200000000000000000000000000000000000000000000000000000000000000000",
          "blockHash": "0xdaebd2879dec10a0881b7c03ae44b06ef71f7c6e46e4c5f8c24f5f0787aad2f9",
          "blockNumber": "0x9e9ecd",
          "blockTimestamp": "0x69aa9b08",
          "transactionHash": "0xbd5c0f090a245ffbbcd34703f7e84a4a6c5925d2c0ba05ff56a070ad871a0508",
          "transactionIndex": "0xb2",
          "logIndex": "0x259",
          "removed": false
        },
        {
          "address": "0x86efbd0b6736bed994962f9797049422a3a8e8ad",
          "topics": [
            "0x3e8740446213c8a77d40e08f79136ce3f347d13ed270a6ebdf57159e0faf4850",
            "0x844d09df0000000000000000000000006c560d3d6b16c4ebfe25a768e6667e49"
          ],
          "data": "0x00000000000000000000000000000000000000000000000000000000000000200000000000000000000000000000000000000000000000000000000000000000",
          "blockHash": "0xdaebd2879dec10a0881b7c03ae44b06ef71f7c6e46e4c5f8c24f5f0787aad2f9",
          "blockNumber": "0x9e9ecd",
          "blockTimestamp": "0x69aa9b08",
          "transactionHash": "0xbd5c0f090a245ffbbcd34703f7e84a4a6c5925d2c0ba05ff56a070ad871a0508",
          "transactionIndex": "0xb2",
          "logIndex": "0x25a",
          "removed": false
        },
        {
          "address": "0x779877a7b0d9e8603169ddbd7836e478b4624789",
          "topics": [
            "0xddf252ad1be2c89b69c2b068fc378daa952ba7f163c4a11628f55a4df523b3ef",
            "0x000000000000000000000000b0e49c5d0d05cbc241d68c05bc5ba1d1b7b72976",
            "0x00000000000000000000000086efbd0b6736bed994962f9797049422a3a8e8ad"
          ],
          "data": "0x0000000000000000000000000000000000000000000000001bc16d674ec80000",
          "blockHash": "0xdaebd2879dec10a0881b7c03ae44b06ef71f7c6e46e4c5f8c24f5f0787aad2f9",
          "blockNumber": "0x9e9ecd",
          "blockTimestamp": "0x69aa9b08",
          "transactionHash": "0xbd5c0f090a245ffbbcd34703f7e84a4a6c5925d2c0ba05ff56a070ad871a0508",
          "transactionIndex": "0xb2",
          "logIndex": "0x25b",
          "removed": false
        },
        {
          "address": "0x779877a7b0d9e8603169ddbd7836e478b4624789",
          "topics": [
            "0xe19260aff97b920c7df27010903aeb9c8d2be5d310a2c67824cf3f15396e4c16",
            "0x000000000000000000000000b0e49c5d0d05cbc241d68c05bc5ba1d1b7b72976",
            "0x00000000000000000000000086efbd0b6736bed994962f9797049422a3a8e8ad"
          ],
          "data": "0x0000000000000000000000000000000000000000000000001bc16d674ec8000000000000000000000000000000000000000000000000000000000000000000400000000000000000000000000000000000000000000000000000000000000020844d09df0000000000000000000000006c560d3d6b16c4ebfe25a768e6667e49",
          "blockHash": "0xdaebd2879dec10a0881b7c03ae44b06ef71f7c6e46e4c5f8c24f5f0787aad2f9",
          "blockNumber": "0x9e9ecd",
          "blockTimestamp": "0x69aa9b08",
          "transactionHash": "0xbd5c0f090a245ffbbcd34703f7e84a4a6c5925d2c0ba05ff56a070ad871a0508",
          "transactionIndex": "0xb2",
          "logIndex": "0x25c",
          "removed": false
        },
        {
          "address": "0x86efbd0b6736bed994962f9797049422a3a8e8ad",
          "topics": [
            "0xafd24114486da8ebfc32f3626dada8863652e187461aa74d4bfa734891506203",
            "0x844d09df0000000000000000000000006c560d3d6b16c4ebfe25a768e6667e49",
            "0x000000000000000000000000b0e49c5d0d05cbc241d68c05bc5ba1d1b7b72976"
          ],
          "data": "0x0000000000000000000000000000000000000000000000001bc16d674ec80000",
          "blockHash": "0xdaebd2879dec10a0881b7c03ae44b06ef71f7c6e46e4c5f8c24f5f0787aad2f9",
          "blockNumber": "0x9e9ecd",
          "blockTimestamp": "0x69aa9b08",
          "transactionHash": "0xbd5c0f090a245ffbbcd34703f7e84a4a6c5925d2c0ba05ff56a070ad871a0508",
          "transactionIndex": "0xb2",
          "logIndex": "0x25d",
          "removed": false
        },
        {
          "address": "0xb0e49c5d0d05cbc241d68c05bc5ba1d1b7b72976",
          "topics": [
            "0xb9a292fb7e3edd920cd2d2829a3615a640c43fd7de0a0820aa0668feb4c37d4b",
            "0x6cb95d31087ef064583a3c84f04d7b8e9a78017a36a5d69c246f13db1daf0e46",
            "0x844d09df0000000000000000000000006c560d3d6b16c4ebfe25a768e6667e49"
          ],
          "data": "0x00000000000000000000000000000000000000000000000000000000000000200000000000000000000000000000000000000000000000000000000000000014446546695374726573734f7261636c6520415255000000000000000000000000",
          "blockHash": "0xdaebd2879dec10a0881b7c03ae44b06ef71f7c6e46e4c5f8c24f5f0787aad2f9",
          "blockNumber": "0x9e9ecd",
          "blockTimestamp": "0x69aa9b08",
          "transactionHash": "0xbd5c0f090a245ffbbcd34703f7e84a4a6c5925d2c0ba05ff56a070ad871a0508",
          "transactionIndex": "0xb2",
          "logIndex": "0x25e",
          "removed": false
        }
      ],
      "logsBloom": "0x00000004800000000080000000000000000000000000000000000000020000000000000000000000000000000000000000000020000000000000000000210004000000004100000801400008008000100000000000001040020020000000000000240000000000000000000001020000000000000000000001100010000000000000000000000100010000000000800000000120240000000100000000000000020000000000000c00400000000000000000000000000020000000230000000000000002000000000000000000000000000000000802008100000000800000000010000100000000000000200000000001400000000000000000101000000000",
      "type": "0x2",
      "transactionHash": "0xbd5c0f090a245ffbbcd34703f7e84a4a6c5925d2c0ba05ff56a070ad871a0508",
      "transactionIndex": "0xb2",
      "blockHash": "0xdaebd2879dec10a0881b7c03ae44b06ef71f7c6e46e4c5f8c24f5f0787aad2f9",
      "blockNumber": "0x9e9ecd",
      "gasUsed": "0x6d683",
      "effectiveGasPrice": "0x2e9e81ac",
      "from": "0x3df3a0005882c04ff01923fb30318235e4a2021d",
      "to": "0xb0e49c5d0d05cbc241d68c05bc5ba1d1b7b72976",
      "contractAddress": null
    }
  ],
  "libraries": [],
  "pending": [],
  "returns": {},
  "timestamp": 1772788490461,
  "chain": 11155111,
  "commit": "54cb5ac"
}