{
  "transactions": [
    {
      "hash": "0x8e62f91327e8b7f4eedd83018a93d24249b8831ec1f51707e4bcf5e41529c95d",
      "transactionType": "CALL",
      "contractName": null,
      "contractAddress": "0x779877a7b0d9e8603169ddbd7836e478b4624789",
      "function": "approve(address,uint256)",
      "arguments": [
        "0xb0E49c5D0d05cbc241d68c05BC5BA1d1B7B72976",
        "2000000000000000000"
      ],
      "transaction": {
        "from": "0x3df3a0005882c04ff01923fb30318235e4a2021d",
        "to": "0x779877a7b0d9e8603169ddbd7836e478b4624789",
        "gas": "0xf961",
        "value": "0x0",
        "input": "0x095ea7b3000000000000000000000000b0e49c5d0d05cbc241d68c05bc5ba1d1b7b729760000000000000000000000000000000000000000000000001bc16d674ec80000",
        "nonce": "0x51",
        "chainId": "0xaa36a7"
      },
      "additionalContracts": [],
      "isFixedGasLimit": false
    },
    {
      "hash": "0xe421518924ad67dafcd3ad235b11b901e35822aad94dcec85d365081af3190a6",
      "transactionType": "CALL",
      "contractName": null,
      "contractAddress": "0xb0e49c5d0d05cbc241d68c05bc5ba1d1b7b72976",
      "function": "registerUpkeep((string,bytes,address,uint32,address,uint8,bytes,bytes,bytes,uint96))",
      "arguments": [
        "(DeFiStressOracle ARU, 0x, 0x473779900D540F0098D4EDf40bD3b94a36f8731C, 3000000, 0x3Df3a0005882C04FF01923Fb30318235e4A2021D, 0, 0x, 0x, 0x, 2000000000000000000)"
      ],
      "transaction": {
        "from": "0x3df3a0005882c04ff01923fb30318235e4a2021d",
        "to": "0xb0e49c5d0d05cbc241d68c05bc5ba1d1b7b72976",
        "gas": "0x971d3",
        "value": "0x0",
        "input": "0x3f678e11000000000000000000000000000000000000000000000000000000000000002000000000000000000000000000000000000000000000000000000000000001400000000000000000000000000000000000000000000000000000000000000180000000000000000000000000473779900d540f0098d4edf40bd3b94a36f8731c00000000000000000000000000000000000000000000000000000000002dc6c00000000000000000000000003df3a0005882c04ff01923fb30318235e4a2021d000000000000000000000000000000000000000000000000000000000000000000000000000000000000000000000000000000000000000000000000000001a000000000000000000000000000000000000000000000000000000000000001c000000000000000000000000000000000000000000000000000000000000001e00000000000000000000000000000000000000000000000001bc16d674ec800000000000000000000000000000000000000000000000000000000000000000014446546695374726573734f7261636c65204152550000000000000000000000000000000000000000000000000000000000000000000000000000000000000000000000000000000000000000000000000000000000000000000000000000000000000000000000000000000000000000000000000000000000000000000000000000000000000000000000000000000000000000000000000000000000000000",
        "nonce": "0x52",
        "chainId": "0xaa36a7"
      },
      "additionalContracts": [
        {
          "transactionType": "CREATE",
          "contractName": null,
          "address": "0x27c85e3bfc5f9b1a7747cbfb0710f857f6547515",
          "initCode": "0x60c060405234801561001057600080fd5b506040516103ca3803806103ca83398101604081905261002f91610076565b600080546001600160a01b0319166001600160a01b039384161790559181166080521660a0526100b9565b80516001600160a01b038116811461007157600080fd5b919050565b60008060006060848603121561008b57600080fd5b6100948461005a565b92506100a26020850161005a565b91506100b06040850161005a565b90509250925092565b60805160a0516102e76100e36000396000603801526000818160c4015261011701526102e76000f3fe608060405234801561001057600080fd5b50600436106100365760003560e01c806379188d161461007b578063f00e6a2a146100aa575b7f00000000000000000000000000000000000000000000000000000000000000003660008037600080366000845af43d6000803e808015610076573d6000f35b3d6000fd5b61008e6100893660046101c1565b6100ee565b6040805192151583526020830191909152015b60405180910390f35b60405173ffffffffffffffffffffffffffffffffffffffff7f00000000000000000000000000000000000000000000000000000000000000001681526020016100a1565b60008054819073ffffffffffffffffffffffffffffffffffffffff16331461011557600080fd5b7f00000000000000000000000000000000000000000000000000000000000000005a91505a61138881101561014957600080fd5b61138881039050856040820482031161016157600080fd5b50803b61016d57600080fd5b6000808551602087016000858af192505a610188908361029a565b9150509250929050565b7f4e487b7100000000000000000000000000000000000000000000000000000000600052604160045260246000fd5b600080604083850312156101d457600080fd5b82359150602083013567ffffffffffffffff808211156101f357600080fd5b818501915085601f83011261020757600080fd5b81358181111561021957610219610192565b604051601f82017fffffffffffffffffffffffffffffffffffffffffffffffffffffffffffffffe0908116603f0116810190838211818310171561025f5761025f610192565b8160405282815288602084870101111561027857600080fd5b8260208601602083013760006020848301015280955050505050509250929050565b818103818111156102d4577f4e487b7100000000000000000000000000000000000000000000000000000000600052601160045260246000fd5b9291505056fea164736f6c6343000810000a000000000000000000000000473779900d540f0098d4edf40bd3b94a36f8731c00000000000000000000000086efbd0b6736bed994962f9797049422a3a8e8ad00000000000000000000000045e65c181e503ed0c116313edcad042928a6d608"
        }
      ],
      "isFixedGasLimit": false
    }
  ],
  "receipts": [
    {
      "status": "0x1",
      "cumulativeGasUsed": "0x1ddc4d2",
      "logs": [
        {
          "address": "0x779877a7b0d9e8603169ddbd7836e478b4624789",
          "topics": [
            "0x8c5be1e5ebec7d5bd14f71427d1e84f3dd0314c0f7b2291e5b200ac8c7c3b925",
            "0x0000000000000000000000003df3a0005882c04ff01923fb30318235e4a2021d",
            "0x000000000000000000000000b0e49c5d0d05cbc241d68c05bc5ba1d1b7b72976"
          ],
          "data": "0x0000000000000000000000000000000000000000000000001bc16d674ec80000",
          "blockHash": "0x0b064a0d8505dedf924068bff3696baf010e1e4e45e4adf102a194f58d80544d",
          "blockNumber": "0x9ea18b",
          "blockTimestamp": "0x69aabef0",
          "transactionHash": "0x8e62f91327e8b7f4eedd83018a93d24249b8831ec1f51707e4bcf5e41529c95d",
          "transactionIndex": "0xab",
          "logIndex": "0x23b",
          "removed": false
        }
      ],
      "logsBloom": "0x00000004000000000080000000000000000000000000000000000000000000000000000000000000000000000000000000000020000000000000000000200000000000000000000800000000000000000000000000001040000000000000000000000000000000000000000000000000000000000000000000000000000000000000000000000000000000000000800000000000000000000000000000000000020000000000000000000000000000000000000000000000000000000000000000000000000000000000000000000000000000000000008100000000000000000010000000000000000000000000000000000000000000000000000000000000",
      "type": "0x2",
      "transactionHash": "0x8e62f91327e8b7f4eedd83018a93d24249b8831ec1f51707e4bcf5e41529c95d",
      "transactionIndex": "0xab",
      "blockHash": "0x0b064a0d8505dedf924068bff3696baf010e1e4e45e4adf102a194f58d80544d",
      "blockNumber": "0x9ea18b",
      "gasUsed": "0xb48d",
      "effectiveGasPrice": "0xd1103e",
      "from": "0x3df3a0005882c04ff01923fb30318235e4a2021d",
      "to": "0x779877a7b0d9e8603169ddbd7836e478b4624789",
      "contractAddress": null
    },
    {
      "status": "0x1",
      "cumulativeGasUsed": "0x1e49b49",
      "logs": [
        {
          "address": "0x779877a7b0d9e8603169ddbd7836e478b4624789",
          "topics": [
            "0xddf252ad1be2c89b69c2b068fc378daa952ba7f163c4a11628f55a4df523b3ef",
            "0x0000000000000000000000003df3a0005882c04ff01923fb30318235e4a2021d",
            "0x000000000000000000000000b0e49c5d0d05cbc241d68c05bc5ba1d1b7b72976"
          ],
          "data": "0x0000000000000000000000000000000000000000000000001bc16d674ec80000",
          "blockHash": "0x0b064a0d8505dedf924068bff3696baf010e1e4e45e4adf102a194f58d80544d",
          "blockNumber": "0x9ea18b",
          "blockTimestamp": "0x69aabef0",
          "transactionHash": "0xe421518924ad67dafcd3ad235b11b901e35822aad94dcec85d365081af3190a6",
          "transactionIndex": "0xac",
          "logIndex": "0x23c",
          "removed": false
        },
        {
          "address": "0x779877a7b0d9e8603169ddbd7836e478b4624789",
          "topics": [
            "0x8c5be1e5ebec7d5bd14f71427d1e84f3dd0314c0f7b2291e5b200ac8c7c3b925",
            "0x0000000000000000000000003df3a0005882c04ff01923fb30318235e4a2021d",
            "0x000000000000000000000000b0e49c5d0d05cbc241d68c05bc5ba1d1b7b72976"
          ],
          "data": "0x0000000000000000000000000000000000000000000000000000000000000000",
          "blockHash": "0x0b064a0d8505dedf924068bff3696baf010e1e4e45e4adf102a194f58d80544d",
          "blockNumber": "0x9ea18b",
          "blockTimestamp": "0x69aabef0",
          "transactionHash": "0xe421518924ad67dafcd3ad235b11b901e35822aad94dcec85d365081af3190a6",
          "transactionIndex": "0xac",
          "logIndex": "0x23d",
          "removed": false
        },
        {
          "address": "0xb0e49c5d0d05cbc241d68c05bc5ba1d1b7b72976",
          "topics": [
            "0x7684390ebb103102f7f48c71439c2408713f8d437782a6fab2756acc0e42c1b7",
            "0xfee7032c87b6d4b2ad96078fb1329914a95732977039e004f5ef28b3aec7d032",
            "0x000000000000000000000000473779900d540f0098d4edf40bd3b94a36f8731c"
          ],
          "data": "0x0000000000000000000000000000000000000000000000000000000000000120000000000000000000000000000000000000000000000000000000000000016000000000000000000000000000000000000000000000000000000000002dc6c00000000000000000000000003df3a0005882c04ff01923fb30318235e4a2021d0000000000000000000000000000000000000000000000000000000000000000000000000000000000000000000000000000000000000000000000000000018000000000000000000000000000000000000000000000000000000000000001a000000000000000000000000000000000000000000000000000000000000001c00000000000000000000000000000000000000000000000001bc16d674ec800000000000000000000000000000000000000000000000000000000000000000014446546695374726573734f7261636c65204152550000000000000000000000000000000000000000000000000000000000000000000000000000000000000000000000000000000000000000000000000000000000000000000000000000000000000000000000000000000000000000000000000000000000000000000000000000000000000000000000000000000000000000000000000000000000000000",
          "blockHash": "0x0b064a0d8505dedf924068bff3696baf010e1e4e45e4adf102a194f58d80544d",
          "blockNumber": "0x9ea18b",
          "blockTimestamp": "0x69aabef0",
          "transactionHash": "0xe421518924ad67dafcd3ad235b11b901e35822aad94dcec85d365081af3190a6",
          "transactionIndex": "0xac",
          "logIndex": "0x23e",
          "removed": false
        },
        {
          "address": "0x86efbd0b6736bed994962f9797049422a3a8e8ad",
          "topics": [
            "0xbae366358c023f887e791d7a62f2e4316f1026bd77f6fb49501a917b3bc5d012",
            "0x7bc3376f00000000000000000000000031b40c35e9c6c03e140ab474eba63010"
          ],
          "data": "0x00000000000000000000000000000000000000000000000000000000002dc6c00000000000000000000000003df3a0005882c04ff01923fb30318235e4a2021d",
          "blockHash": "0x0b064a0d8505dedf924068bff3696baf010e1e4e45e4adf102a194f58d80544d",
          "blockNumber": "0x9ea18b",
          "blockTimestamp": "0x69aabef0",
          "transactionHash": "0xe421518924ad67dafcd3ad235b11b901e35822aad94dcec85d365081af3190a6",
          "transactionIndex": "0xac",
          "logIndex": "0x23f",
          "removed": false
        },
        {
          "address": "0x86efbd0b6736bed994962f9797049422a3a8e8ad",
          "topics": [
            "0xcba2d5723b2ee59e53a8e8a82a4a7caf4fdfe70e9f7c582950bf7e7a5c24e83d",
            "0x7bc3376f00000000000000000000000031b40c35e9c6c03e140ab474eba63010"
          ],
          "data": "0x00000000000000000000000000000000000000000000000000000000000000200000000000000000000000000000000000000000000000000000000000000000",
          "blockHash": "0x0b064a0d8505dedf924068bff3696baf010e1e4e45e4adf102a194f58d80544d",
          "blockNumber": "0x9ea18b",
          "blockTimestamp": "0x69aabef0",
          "transactionHash": "0xe421518924ad67dafcd3ad235b11b901e35822aad94dcec85d365081af3190a6",
          "transactionIndex": "0xac",
          "logIndex": "0x240",
          "removed": false
        },
        {
          "address": "0x86efbd0b6736bed994962f9797049422a3a8e8ad",
          "topics": [
            "0x2b72ac786c97e68dbab71023ed6f2bdbfc80ad9bb7808941929229d71b7d5664",
            "0x7bc3376f00000000000000000000000031b40c35e9c6c03e140ab474eba63010"
          ],
          "data": "0x00000000000000000000000000000000000000000000000000000000000000200000000000000000000000000000000000000000000000000000000000000000",
          "blockHash": "0x0b064a0d8505dedf924068bff3696baf010e1e4e45e4adf102a194f58d80544d",
          "blockNumber": "0x9ea18b",
          "blockTimestamp": "0x69aabef0",
          "transactionHash": "0xe421518924ad67dafcd3ad235b11b901e35822aad94dcec85d365081af3190a6",
          "transactionIndex": "0xac",
          "logIndex": "0x241",
          "removed": false
        },
        {
          "address": "0x86efbd0b6736bed994962f9797049422a3a8e8ad",
          "topics": [
            "0x3e8740446213c8a77d40e08f79136ce3f347d13ed270a6ebdf57159e0faf4850",
            "0x7bc3376f00000000000000000000000031b40c35e9c6c03e140ab474eba63010"
          ],
          "data": "0x00000000000000000000000000000000000000000000000000000000000000200000000000000000000000000000000000000000000000000000000000000000",
          "blockHash": "0x0b064a0d8505dedf924068bff3696baf010e1e4e45e4adf102a194f58d80544d",
          "blockNumber": "0x9ea18b",
          "blockTimestamp": "0x69aabef0",
          "transactionHash": "0xe421518924ad67dafcd3ad235b11b901e35822aad94dcec85d365081af3190a6",
          "transactionIndex": "0xac",
          "logIndex": "0x242",
          "removed": false
        },
        {
          "address": "0x779877a7b0d9e8603169ddbd7836e478b4624789",
          "topics": [
            "0xddf252ad1be2c89b69c2b068fc378daa952ba7f163c4a11628f55a4df523b3ef",
            "0x000000000000000000000000b0e49c5d0d05cbc241d68c05bc5ba1d1b7b72976",
            "0x00000000000000000000000086efbd0b6736bed994962f9797049422a3a8e8ad"
          ],
          "data": "0x0000000000000000000000000000000000000000000000001bc16d674ec80000",
          "blockHash": "0x0b064a0d8505dedf924068bff3696baf010e1e4e45e4adf102a194f58d80544d",
          "blockNumber": "0x9ea18b",
          "blockTimestamp": "0x69aabef0",
          "transactionHash": "0xe421518924ad67dafcd3ad235b11b901e35822aad94dcec85d365081af3190a6",
          "transactionIndex": "0xac",
          "logIndex": "0x243",
          "removed": false
        },
        {
          "address": "0x779877a7b0d9e8603169ddbd7836e478b4624789",
          "topics": [
            "0xe19260aff97b920c7df27010903aeb9c8d2be5d310a2c67824cf3f15396e4c16",
            "0x000000000000000000000000b0e49c5d0d05cbc241d68c05bc5ba1d1b7b72976",
            "0x00000000000000000000000086efbd0b6736bed994962f9797049422a3a8e8ad"
          ],
          "data": "0x0000000000000000000000000000000000000000000000001bc16d674ec80000000000000000000000000000000000000000000000000000000000000000004000000000000000000000000000000000000000000000000000000000000000207bc3376f00000000000000000000000031b40c35e9c6c03e140ab474eba63010",
          "blockHash": "0x0b064a0d8505dedf924068bff3696baf010e1e4e45e4adf102a194f58d80544d",
          "blockNumber": "0x9ea18b",
          "blockTimestamp": "0x69aabef0",
          "transactionHash": "0xe421518924ad67dafcd3ad235b11b901e35822aad94dcec85d365081af3190a6",
          "transactionIndex": "0xac",
          "logIndex": "0x244",
          "removed": false
        },
        {
          "address": "0x86efbd0b6736bed994962f9797049422a3a8e8ad",
          "topics": [
            "0xafd24114486da8ebfc32f3626dada8863652e187461aa74d4bfa734891506203",
            "0x7bc3376f00000000000000000000000031b40c35e9c6c03e140ab474eba63010",
            "0x000000000000000000000000b0e49c5d0d05cbc241d68c05bc5ba1d1b7b72976"
          ],
          "data": "0x0000000000000000000000000000000000000000000000001bc16d674ec80000",
          "blockHash": "0x0b064a0d8505dedf924068bff3696baf010e1e4e45e4adf102a194f58d80544d",
          "blockNumber": "0x9ea18b",
          "blockTimestamp": "0x69aabef0",
          "transactionHash": "0xe421518924ad67dafcd3ad235b11b901e35822aad94dcec85d365081af3190a6",
          "transactionIndex": "0xac",
          "logIndex": "0x245",
          "removed": false
        },
        {
          "address": "0xb0e49c5d0d05cbc241d68c05bc5ba1d1b7b72976",
          "topics": [
            "0xb9a292fb7e3edd920cd2d2829a3615a640c43fd7de0a0820aa0668feb4c37d4b",
            "0xfee7032c87b6d4b2ad96078fb1329914a95732977039e004f5ef28b3aec7d032",
            "0x7bc3376f00000000000000000000000031b40c35e9c6c03e140ab474eba63010"
          ],
          "data": "0x00000000000000000000000000000000000000000000000000000000000000200000000000000000000000000000000000000000000000000000000000000014446546695374726573734f7261636c6520415255000000000000000000000000",
          "blockHash": "0x0b064a0d8505dedf924068bff3696baf010e1e4e45e4adf102a194f58d80544d",
          "blockNumber": "0x9ea18b",
          "blockTimestamp": "0x69aabef0",
          "transactionHash": "0xe421518924ad67dafcd3ad235b11b901e35822aad94dcec85d365081af3190a6",
          "transactionIndex": "0xac",
          "logIndex": "0x246",
          "removed": false
        }
      ],
      "logsBloom": "0x00000004800000000080000000000000000000000000000000000000020000000000000020000040000000000000000000000020000000000000000000200004000000004000000801400008000000100000000000001040020020000000000000240000000000000000000001020000000080000000000001100010000000000000000000000100002000200000800000000120240000000100000000000000020000000080000c00000000000000000000000000000020000004210000000000000002000000000000000000000000000000002000008100000000800000000010000000000000000000200000000001400000000000000000101000000000",
      "type": "0x2",
      "transactionHash": "0xe421518924ad67dafcd3ad235b11b901e35822aad94dcec85d365081af3190a6",
      "transactionIndex": "0xac",
      "blockHash": "0x0b064a0d8505dedf924068bff3696baf010e1e4e45e4adf102a194f58d80544d",
      "blockNumber": "0x9ea18b",
      "gasUsed": "0x6d677",
      "effectiveGasPrice": "0xd1103e",
      "from": "0x3df3a0005882c04ff01923fb30318235e4a2021d",
      "to": "0xb0e49c5d0d05cbc241d68c05bc5ba1d1b7b72976",
      "contractAddress": null
    }
  ],
  "libraries": [],
  "pending": [],
  "returns": {},
  "timestamp": 1772797682408,
  "chain": 11155111,
  "commit": "46db4ed"
}